:020000040000FA
:10000000280B002055010000870100008901000035
:10001000990100009B0100009D010000000000000C
:100020000000000000000000000000009F01000030
:10003000A101000000000000A3010000A5010000D4
:10004000A7010000A7010000A7010000A701000010
:10005000A7010000A7010000A7010000A701000000
:10006000ED210000A7010000A7010000A70100008A
:10007000A7010000A7010000A7010000350F000044
:10008000A7010000A7010000A7010000A7010000D0
:10009000A7010000A7010000A7010000A7010000C0
:1000A000A7010000A7010000A7010000A7010000B0
:1000B000A7010000A7010000A7010000A7010000A0
:1000C0000D1C0000A7010000A7010000A70100000F
:1000D000A7010000591C0000A7010000A7010000B3
:1000E000A7010000A70100000D070000A701000004
:1000F000A7010000A7010000A7010000A701000060
:10010000A7010000A7010000A7010000A70100004F
:10011000A7010000A7010000A7010000A70100003F
:10012000A7010000A7010000A7010000A70100002F
:10013000A7010000A7010000A7010000A70100001F
:10014000DFF80CD000F03CFA00480047852600009C
:10015000280B002014484FF0590101604FF01601A0
:1001600001604FF088010160104A45F6A521116039
:100170000F4A116821F480511160002101600D487F
:1001800080470D480047FEE77046EFF30881EFF324
:1001900009820A4B98470047FEE7FEE7FEE7FEE7C5
:1001A000FEE7FEE7FEE7FEE7000100402400004016
:1001B00000020040011A000041010000E1130000AC
:1001C00030B50B46014600202022012409E021FA27
:1001D00002F59D4205D303FA02F5491B04FA02F524
:1001E0002844151EA2F10102F1DC30BD2DE9F05FBB
:1001F0000546002092469B46884606468146402496
:100200001BE0284641464746224600F000FA534686
:100210005A46C01A914110D311461846224600F0A2
:10022000E7F92D1A67EB01084F462246012000210D
:1002300000F0DEF917EB00094E41201EA4F1010485
:10024000DFDC484631462A464346BDE8F09F2DE9AB
:10025000FE4F804681EA0300C00F0C46009021F05B
:10026000004123F00045B8EB0200A94105D2404609
:10027000214690461C460B46024623F000401043A0
:1002800047D0270DC7F30A00C3F30A510290401A62
:10029000019040286BDAC3F3130040F4801B0098F0
:1002A000924620B10023D2EB030A63EB0B0B0198BB
:1002B0005946C0F14002504600F09AF906460D46F4
:1002C00050465946019A00F0B2F910EB080061411E
:1002D000002487EA115284EAE7731A4340D0009A57
:1002E00062B3019A012A4FEA075215DC001B61EB49
:1002F00002014FF0004202EA0752CDE90042001C21
:1003000041F5801132462B4600F0B2F903B0BDE84A
:10031000F08F40462146F9E7001B61EB0201001C0B
:1003200041F5801300185B412018A2F5001747EB38
:10033000030140EAD570B6196D4111E06D084FEA2E
:10034000360645EAC0754FEA0752001B61EB020111
:10035000001C41F5801149084FEA30000019514155
:1003600032462B4603B0BDE8F04F00F072B900985A
:10037000012240000023D0EB020263EBE0730098FF
:1003800021464FEAE074B8EB000061EB0401E9E7B5
:1003900083F000435BE781F0004158E72DE9FE4F11
:1003A00081EA030404F0004421F0004100944FF07E
:1003B000000B23F0004350EA01045ED052EA03042C
:1003C0005BD0C3F30A54C1F30A552C44A4F2F334AE
:1003D0000194A0FB0254C1F3130141F48011C3F353
:1003E000130343F4801301FB024400FB034E840A11
:1003F000970A44EA815447EA8357A4FB07680295A9
:100400008D0A05FB07854FEA932C04FB0C54270546
:10041000029D4FEA065847EA1637B5EB08056EEB22
:10042000070C870E920E47EA811742EA8312A7FB58
:100430000201B6EB0B0164EB00042B0D43EA0C3315
:100440005E1844EB1C50DA465146E7FB0201C5F347
:1004500013044FEA0B3343EA14534FEA0432019C6E
:1004600043EA0603A4F10C040294009CCDE900B415
:1004700000F0FEF803B0BDE8F08F00200146F9E778
:100480002DE9F04D81EA030404F0004B21F0004512
:1004900014464FF0000A23F0004150EA050220D034
:1004A00054EA01021DD0C5F30A570246C5F31303EF
:1004B000C1F31300C1F30A5640F4801543F48013CE
:1004C000A7EB0608101BD64608F2FD3873EB0500B3
:1004D00002D308F1010801E092185B41B8F1000F66
:1004E00003DA00200146BDE8F08D00204FF48011B2
:1004F000064684460EE0171B73EB050705D3121B57
:1005000063EB050306434CEA010C49084FEA30004F
:1005100092185B4150EA0107EDD152EA030012D074
:1005200082EA040083EA0501084305D0101BAB41B1
:1005300006D20122002306E000224FF0004302E031
:100540006FF0010253101AEB06004CEB085110EB50
:100550000A0041EB0B01BDE8F04D00F07AB8C1F3A1
:100560000A52C1F3130140F2FF3341F480119A4261
:1005700002DA00200146704740F233439A42A2F269
:10058000334202DC524200F042B800F031B80000C1
:1005900030B5041E71F1000404DB4FF0004440420A
:1005A00064EB0101141E73F1000405DB1C464FF0DF
:1005B0000043524263EB0403994208BF904230BDAE
:1005C0001CB509480090094801900546009C06E0CA
:1005D000E06840F0010394E8070098471034AC420B
:1005E000F6D3FFF7B1FD0000C03E0000E03E000082
:1005F000202A04DB203A00FA02F1002070479140E3
:10060000C2F1200320FA03F3194390407047202AD7
:1006100004DB203A21FA02F00021704721FA02F3AC
:10062000D040C2F120029140084319467047202A69
:1006300006DBCB17203A41FA02F043EAE07306E00A
:1006400041FA02F3D040C2F120029140084319461A
:10065000704710B5141E73F1000408DA401C41F114
:10066000000192185B411A4301D120F0010010BD36
:100670002DE9F04D92469B4611B1B1FA81F202E0AC
:10068000B0FA80F220329046FFF7B2FF04460F46E0
:1006900040EA0A0041EA0B0153465A46084313D088
:1006A000114653EA010019D0C8F140025046FFF745
:1006B000AEFF05460E46504659464246FFF798FFA4
:1006C000084305D0012004E020463946BDE8F08DFE
:1006D0000020054346EAE0762C4337430A98630539
:1006E000E40AA0EB08000022FD0A44EA47540A305D
:1006F00002D500200146E9E7010510196941DDE94D
:10070000084500196941BDE8F04DA2E740F2081123
:10071000C2F200010120086043F2F801C4F20401B2
:100720000860704740F24021C4F20001086840F4BC
:10073000803008607047000081B00090009800F0A1
:100740001F02012101FA02F3820F40F20421C4F2D8
:10075000000151F82200184341F8220001B070470F
:1007600080B590B00E900D9140F24021C4F200018E
:10077000086840F4803008600E98A8B9FFE740F29E
:100780000021C4F20001086840F001000860012067
:1007900000F064FB0020089042F20040C0F2F40038
:1007A0000C9002200B9015E040F20021C4F20001F1
:1007B000086840F004000860102000F04FFB4FF480
:1007C0000020089048F20000C0F251100C90042064
:1007D0000B90FFE70D9846F20051C1F6CD518842CB
:1007E0000BD8FFE70D984BF28121C0F6E6618842F5
:1007F00003D3FFE7002009902EE00D984BF28021F3
:10080000C0F6E66188420ED8FFE70D9845F6411123
:10081000C0F27371884206D3FFE7012009900D985A
:1008200040000D9017E00D9845F64011C0F273712D
:1008300088420ED8FFE70D984FF28001C0F2FA21EE
:10084000884206D3FFE7032009900D9880000D90A1
:1008500000E08DE0FFE7FFE74FF0FF30049000205D
:1008600002900390FFE70B9821285FD8FFE70C98D0
:100870000B99B0FBF1F00790079846F60121C0F202
:10088000180188424DD3FFE7079842F2FF31C0F2CA
:10089000F401884245D8FFE702200A90FFE70A9852
:1008A00040F2012188423BD8FFE707980A99484364
:1008B000069006984CF20021C0F6EB3188422AD30C
:1008C000FFE7069846F20051C1F6CD51884222D882
:1008D000FFE706980D99884205D9FFE706980D991C
:1008E000401A019004E00D980699401A0190FFE724
:1008F000019805900598049988420BD2FFE7059866
:1009000004900B9802900A980390049808B9FFE7A6
:1009100006E0FFE7FFE7FFE70A9801300A90BEE72D
:10092000FFE7FFE70B9801300B909CE708980999C7
:1009300040EA8130029A4FF60041CFF6FF7101EB99
:100940004221084303990239084340F24021C4F28E
:1009500000010860042000F081FA0C980999013127
:10096000029A5143B0FBF1F0039948430F901BE00A
:100970000E9840B9FFE740F24021C4F200014CF26A
:100980002200086009E040F24021C4F200014CF26C
:100990003240C0F208000860FFE7042000F05EFA71
:1009A00000F0A8F80F90FFE70F9810B080BD00008E
:1009B00081B00090009A40F20021C4F20001086862
:1009C0001043086001B0704780B582B000F0CCFFE2
:1009D00040F21020C4F2000000684006002808D54C
:1009E000FFE740F20800C2F20000006840080190F2
:1009F00006E040F20800C2F2000000680190FFE744
:100A0000019802B080BD000080B582B000F0ACFF5C
:100A100040F21020C4F2000000680006002808D54B
:100A2000FFE740F20800C2F20000006840080190B1
:100A300006E040F20800C2F2000000680190FFE703
:100A4000019802B080BD000088B00020069040F2FE
:100A50000120C0F20240009040F24020C4F20000A9
:100A6000006805909DF8160010F0050F03D0FFE711
:100A7000002007903BE09DF816000007002806D5EF
:100A8000FFE748F20000C0F25110049005E042F286
:100A90000040C0F2F4000490FFE79DF816008007C4
:100AA000002803D5FFE70498079020E0BDF8141054
:100AB000684640EA91300078019005986FF35F2016
:100AC00002300390059800F47851022000EB512089
:100AD000029004988008039948430299019A51436F
:100AE000B0FBF1F08000069006980790FFE70798AA
:100AF00008B0704788B00020069040F20120C0F294
:100B00000240009040F24020C4F2000000680590CE
:100B10009DF8160010F0050F03D0FFE700200790A6
:100B20003BE09DF816000007002806D5FFE748F2D5
:100B30000000C0F25110049005E042F20040C0F203
:100B4000F4000490FFE79DF816008007002803D505
:100B5000FFE70498079020E0BDF81410684640EACB
:100B600091300078019005986FF35F200230039078
:100B7000059800F47851022000EB5120029004986F
:100B80008008039948430299019A5143B0FBF1F060
:100B90008000069006980790FFE7079808B0704716
:100BA00088B00020069040F20120C0F20240009080
:100BB00040F24020C4F20000006805909DF8160045
:100BC00010F0050F03D0FFE7002007903BE09DF8F1
:100BD00016000007002806D5FFE748F20000C0F223
:100BE0005110049005E042F20040C0F2F40004907D
:100BF000FFE79DF816008007002803D5FFE704985B
:100C0000079020E0BDF81410684640EA9130007863
:100C1000019005986FF35F2002300390059800F46F
:100C20007851022000EB512002900498800803992B
:100C300048430299019A5143B0FBF1F080000690BD
:100C400006980790FFE7079808B0704780B582B014
:100C5000019040F25020C4F20000006800F0100043
:100C6000009001984AF20121C0F24A41884206D31D
:100C7000FFE74AF20020C0F24A400190FFE70198E6
:100C800047F63F01C0F27D11884206D8FFE747F6DC
:100C90004000C0F27D100190FFE740F20021C4F255
:100CA0000001086840F004000860102000F0D6F849
:100CB00040F21021C4F20001086840F0070008600B
:100CC00040F22021C4F20001086820F00F00086003
:100CD00040F25020C4F200000068C00738B1FFE7BE
:100CE000019841000020FFF73BFD01900FE00198C3
:100CF00041004FF40020FFF733FD019040F25020F7
:100D0000C4F20000006800F010000090FFE702202D
:100D1000012100F011F8009848B9FFE740F20021E6
:100D2000C4F20001086820F004000860FFE70198A1
:100D3000400802B080BD000080B584B003900291ED
:100D400040F25020C4F20000006800F01000019052
:100D500040F20021C4F20001086840F0040008607D
:100D6000102000F07BF840F21021C4F20001086866
:100D700040F00700086040F22022C4F20002106830
:100D800020F00F00029B18431060086820F0070055
:100D9000039A1043086000F0E7FD019848B9FFE7A7
:100DA00040F20021C4F20001086820F0040008604D
:100DB000FFE704B080BD000085B00490039102926B
:100DC0000020019000900498800A0006C0B1FFE75F
:100DD000BDF8120000F00C0040F22021C4F2000126
:100DE0000843009000980068049AC2F38721C2F378
:100DF0004412914088430299084300990860FFE734
:100E00000498400E4007C0B1FFE704990C2000EAA7
:100E1000916040F21021C4F2000108430190019852
:100E20000068049AC2F34261C2F3045291408843BD
:100E30000399084301990860FFE705B07047000077
:100E400081B0009040F21021C4F20001086820F047
:100E50003800009A1043086001B0704783B00190D9
:100E600040F20800C2F20000006840080090FFE76E
:100E700040F25020C4F20000006801990840884206
:100E80000AD0FFE70098411E0091002803DCFFE72D
:100E90000020029003E0EBE701200290FFE70298B8
:100EA00003B0704784B003900291019200930398BD
:100EB000029900EB8101D1F880004FF6C072CFF6A5
:100EC000E0721040C1F880000198009940EA0102E8
:100ED0000398029900EB8101D1F880001043C1F81A
:100EE000800004B07047000082B001900091019929
:100EF000086D20F480700865009801990A6D104310
:100F000040F00100086502B07047000082B0019017
:100F100000910199086D20F4E020086500990020F7
:100F2000CFF6FF7000EB01420199086D1043086590
:100F300002B0704780B544F26010C4F2000000684F
:100F4000C00748B1FFE744F26011C4F2000101207C
:100F5000086000F03BFCFFE780BD00004CF20001A0
:100F6000C4F20001086820F001000860704700002A
:100F70004CF20001C4F20001086840F01000086063
:100F80007047000083B002900020019040F20411ED
:100F9000C2F2000108604CF20C01C4F200012220F0
:100FA000086002984CF20401C4F2000108604CF29F
:100FB0001001C4F200010120086040F20800C2F2F2
:100FC0000000006880080090FFE74CF21000C4F2B7
:100FD0000000006878B1FFE700980138009048B938
:100FE000FFE740F20411C2F200014FF0FF30086049
:100FF0000190FFE7E9E74CF20000C4F2000000684E
:101000004006002811D5FFE74CF20001C4F20001B0
:10101000086840F04000086040F20411C2F200018C
:101020004FF0FF3008600190FFE7019803B0704770
:1010300081B04CF20000C4F2000000688007002874
:1010400003D5FFE70120009002E000200090FFE7B9
:10105000009801B0704700004CF20001C4F200019A
:10106000086840F0010008607047000083B00190FC
:1010700040F20411C2F20001002008604CF20C01A1
:10108000C4F20001086001994CF20402C4F20002AB
:1010900011604CF20801C4F2000108604CF210012A
:1010A000C4F200010120086040F20800C2F2000012
:1010B0000068C0080090FFE74CF21000C4F2000086
:1010C000006878B1FFE700980138009048B9FFE761
:1010D00040F20411C2F200014FF0FF3008600290AC
:1010E00007E0E9E74CF20800C4F200000068029053
:1010F000FFE7029803B0704783B0019040F20411FB
:10110000C2F20001002008604CF20C01C4F20001A0
:10111000086001994CF20402C4F2000211604CF222
:101120000801C4F2000108604CF21001C4F2000191
:101130000120086040F20800C2F200000068C00808
:101140000090FFE74CF21000C4F20000006878B194
:10115000FFE700980138009048B9FFE740F204111A
:10116000C2F200014FF0FF300860029007E0E9E7AB
:101170004CF20800C4F2000000680290FFE70298F9
:1011800003B0704780B584B00390029100200090B6
:1011900040F20411C2F2000108600190FFE70198DB
:1011A000029988421BD2FFE701994FF4401000EBEF
:1011B0008100FFF7A1FF0399019A41F8220040F254
:1011C0000410C2F20000006820B1FFE74FF0FF30CA
:1011D0000090FFE7FFE7019801300190DFE70098FA
:1011E00004B080BD84B00290019140F20411C2F2BB
:1011F0000001002008604CF20C01C4F20001212023
:10120000086002984CF20401C4F2000108600198E1
:101210004CF20801C4F2000108604CF21001C4F263
:1012200000010120086040F20800C2F200000068DE
:10123000C0080090FFE74CF21000C4F20000006804
:1012400078B1FFE700980138009048B9FFE740F215
:101250000411C2F200014FF0FF300860039003E078
:10126000E9E700200390FFE7039804B0704700000F
:1012700084B00290019140F20411C2F200010020FA
:1012800008604CF20C01C4F20001212008600298B1
:101290004CF20401C4F20001086001984CF208010C
:1012A000C4F2000108604CF21001C4F200010120F8
:1012B000086040F20800C2F200000068C008009018
:1012C000FFE74CF21000C4F20000006878B1FFE7BD
:1012D00000980138009048B9FFE740F20411C2F2CB
:1012E00000014FF0FF300860039003E0E9E70020C1
:1012F0000390FFE7039804B07047000080B584B006
:10130000039002910020009040F20411C2F200010B
:1013100008600190FFE701980299884237D2FFE701
:10132000019A4FF4401000EB8200039951F822100B
:10133000FFF79EFF40F20410C2F20000006820B1E7
:10134000FFE74FF0FF300090FFE701994FF44010A6
:1013500000EB8100FFF7D0FE0399019A51F82210AB
:10136000884204D0FFE74FF0FF300090FFE740F2E3
:101370000410C2F20000006820B1FFE74FF0FF3018
:101380000090FFE7FFE7019801300190C3E7009864
:1013900004B080BD84B003900291019200200090BF
:1013A000FFE700980F2818D8FFE702980099C84077
:1013B000C00768B1FFE70398006800994A0003215D
:1013C0009140884301999140084303990860FFE7E1
:1013D000FFE7009801300090E3E704B07047000099
:1013E00080B590B00F900E910D9200200C900F9848
:1013F000C0F380100790079868B1FFE79DF83C00A4
:101400004007002803D5FFE70D980C9002E00E98E6
:101410000C90FFE7FFE70C98816943F67C60C0F20F
:10142000000002F025F80C9838B1FFE70C988069AD
:101430000A900A9800880B90FFE743F68450C0F2A8
:10144000000002F015F80B9943F6F550C0F20000C9
:1014500002F00EF80B984BF6AB61884207D1FFE71C
:1014600043F6B950C0F2000002F002F81CE10B99FB
:101470000520B0EB113F42D1FFE70B98C0F382107B
:1014800006900B98C0F3C20005900B9800F007007F
:1014900004900499069A059B43F66160C0F200002F
:1014A00001F0E6FF0C99059851F82000069A51F8D2
:1014B0002210084409900C98049950F821000890D3
:1014C0000A990B9A4FEA025C43F6B760C0F200003B
:1014D00043F6BB63C0F20003BCF1000F48BF0346F4
:1014E0000898DDF824E0EC46CCF804E0CCF80000E5
:1014F00043F69950C0F2000001F0BAFFD3E00B9917
:101500000320B0EB513F40D1FFE70B98C0F38410AC
:1015100003900B98C0F3C20005900B9800F00700F1
:1015200004900499059A039B43F62B60C0F20000D7
:1015300001F09EFF0C98059950F82100039908448A
:1015400009900C98049950F8210008900A990B9A78
:101550004FEA025C43F6B760C0F2000043F6BB639B
:10156000C0F20003BCF1000F48BF03460898DDF845
:1015700024E0EC46CCF804E0CCF8000043F69950A7
:10158000C0F2000001F074FF8CE00B990820B0EB72
:10159000113F40D1FFE70B98C0F3841003900B98E4
:1015A000C0F3C20005900B9800F007000490049966
:1015B000059A039B43F60C60C0F2000001F058FF4F
:1015C0000C98059950F821000399084409900C984B
:1015D000049950F8210008900A990B9A4FEA025C8E
:1015E00043F6B760C0F2000043F6BB63C0F20003ED
:1015F000BCF1000F48BF03460898DDF824E0EC4634
:10160000CCF804E0CCF8000043F69950C0F200009A
:1016100001F02EFF45E00B990920B0EB113F38D1C6
:10162000FFE79DF82C0002900B98C0F30220049075
:101630000499029A43F64860C0F2000001F018FFD6
:101640000C9880690299084409900C98049950F804
:10165000210008900A990B9A4FEA025C43F6B760A2
:10166000C0F2000043F6BB63C0F20003BCF1000F00
:1016700048BF03460898DDF824E0EC46CCF804E0C7
:10168000CCF8000043F69950C0F2000001F0F0FEE3
:1016900006E043F6DD50C0F2000001F0E9FEFFE78E
:1016A000FFE7FFE7FFE7FFE7FFE70C98006840F080
:1016B000010008B1FFE7F8E70F9810B080BD000007
:1016C00080B586B00420FFF773F91020FFF7C6FB42
:1016D000072000210591FFF72FFBFFF723F80120DA
:1016E0000090FFF765F90098FFF7B8FB4AF2002079
:1016F000C0F24A40FFF7AAFA1820FFF7A1FB43F611
:101700001150C5F280700290FFF716F80220C5F65E
:1017100080600390FFF710F84FF0AC400490FFF7A3
:101720000BF84FF61C60C4F203000190FFF704F8B9
:10173000019805994FF44032FFF73EFB02984FF0B5
:1017400080714FF44072FFF737FB0398059A1146FA
:10175000FFF732FB0498059A0321FFF72DFB302198
:10176000C4F20001086820F0FF000860086840F03B
:10177000330008603821C4F20001086840F6FF72A7
:10178000C0F6007210400860086841F20002C1F221
:1017900011021043086044F24401C4F200010868D9
:1017A00040F43800086006B080BD000040F200112F
:1017B000C4F20001002008607047000040F20011F0
:1017C000C4F2000100200860704700000821C4F244
:1017D0000001086840F001000860704781B0009087
:1017E000009820F07F42012101FA02FC030E08223A
:1017F000C4F20002985840EA0C009850009820F07B
:101800007F4301FA03F3010E88589843885001B0D2
:101810007047000081B048F20000C0F25110009003
:10182000FFE740F20011C4F20001592008601620C1
:1018300008608820086000980138009008B9FFE728
:1018400008E0FFE740F20010C4F200000068002842
:10185000E7D0FFE701B0704781B048F20000C0F266
:1018600051100090FFE740F20011C4F2000159202E
:1018700008601620086088200860009801380090F1
:1018800008B9FFE708E0FFE740F20010C4F20000EB
:1018900000680028E7D0FFE701B0704780B582B04C
:1018A0000190019800F002F802B080BD81B0009074
:1018B0009DF800000A2812D1FFE7FFE741F2180067
:1018C000C4F2070000680002002801D5FFE7F5E731
:1018D00041F20001C4F207010D200860FFE7FFE7B5
:1018E00041F21800C4F2070000680002002801D588
:1018F000FFE7F5E7009841F20001C4F20701086034
:1019000001B0704780B584B0029068460121FFF7AE
:1019100039FC9DF80000C00718B9FFE700200390CC
:101920001FE0FFF725FB4FF44010FFF72BFB00985B
:1019300020F0010000900298019068460221FFF714
:10194000DDFC20B1FFE74FF0FF30039009E00821F4
:10195000C4F20001086840F0010008600020039014
:10196000FFE7039804B080BD80B584B0FFF76CF842
:1019700040F20401C2F20001086040F21020C4F2FB
:101980000000006800F0070002900298022807D1CA
:10199000FFE740F20400C2F200000068039008E094
:1019A000029940F21000C2F2000050F821000390AA
:1019B000FFE740F22020C4F20000006800F00F00B2
:1019C0000130019003980199B0FBF1F140F2080059
:1019D000C2F20000016000684AF22011C0F2070163
:1019E00008444DF68361C4F21B31A0FB0110800C4A
:1019F00040F20001C2F20001086004B080BD0000A6
:101A000080B5FFF707FF4FF08040016840F64510B2
:101A1000B0EB113F08D1FFE71421C4F200010868C0
:101A200040F080000860FFE740F20021C4F20001AE
:101A3000086820F480500860FFF7B8FE4EF6885121
:101A4000CEF20001086840F47000086080BD00001C
:101A500081B000900098806840F0010020F0020002
:101A60000099886001B0704781B0009000990868C3
:101A700040F00050086001B07047000081B0009055
:101A80000098806800F0010001B0704710B58CB07C
:101A90000B9043F66451C0F20001009108684A6857
:101AA0008B68D1F80CC0D1F810E04C690694CDF8E1
:101AB00014E0CDF810C00393029201908869C969BF
:101AC000089107900B980021C4F20501884209D1C2
:101AD000FFE740F21420C4F200000068C0F30220C7
:101AE0000A902BE00B982021C4F20501884209D10D
:101AF000FFE740F21420C4F200000068C0F3023097
:101B00000A901AE00B9841F20001C4F205018842E4
:101B100009D1FFE740F21420C4F200000068C0F3CE
:101B200002400A9008E040F21420C4F2000000686D
:101B3000C0F302500A90FFE7FFE7FFE70A98022888
:101B400017D1FFE70B980021C4F20501884207D0A6
:101B5000FFE70B982021C4F20501884204D1FFE77A
:101B6000FEF732FF099003E0FEF74EFF0990FFE712
:101B700005E00A9901A850F821000990FFE70998AB
:101B80000CB010BD80B586B0059004910392059805
:101B9000FFF77CFF029000200190009003980299CB
:101BA000B0EB510F03D9FFE70220019012E0029839
:101BB0000399B0FBF1F001909DF8070000900098A8
:101BC00038B1FFE7019800990131B0FBF1F00190C5
:101BD000FFE7FFE70498009908430599086001981A
:101BE0000599486002980199009A01325143B0FB6F
:101BF000F1F006B080BD000081B000900099086847
:101C000040F08040086001B07047000080B50020BF
:101C1000C4F20500FFF732FF01281CD1FFE70020C6
:101C2000C4F20500FFF714FF40F21211C2F20001E6
:101C30000120087040F20E10C2F200000078012866
:101C400008DBFFE740F20E11C2F20001087801380C
:101C50000870FFE7FFE780BD85B0FF208DF8130017
:101C600041F21C00C4F20700006803900020ADF8A8
:101C70000A009DF80D00C007002800F0BE81FFE7B4
:101C8000FFE741F21C00C4F207000068C00700280B
:101C900000F0B281FFE741F20000C4F207000068E3
:101CA0008DF8130040F23000C2F2000000780228E4
:101CB00040F0A280FFE740F21110C2F2000000786D
:101CC00068B9FFE79DF81300052807D1FFE740F248
:101CD0001111C2F2000101200870FFE78BE09DF8AE
:101CE0001300403801460191102800F267800199E5
:101CF000DFE801F0091623303D4A646464646464DB
:101D000064646464570040F20D01C2F200012120B6
:101D1000087040F20F11C2F200010120087054E077
:101D200040F20D01C2F200011420087040F20F11C0
:101D3000C2F200010120087047E040F20D01C2F23A
:101D400000010C20087040F20F11C2F200010120C6
:101D500008703AE040F20D01C2F200010A2008705A
:101D600040F20F11C2F20001012008702DE040F294
:101D70000D01C2F200010820087040F20F11C2F2FA
:101D800000010120087020E040F20D01C2F20001C4
:101D90000720087040F20F11C2F200010120087004
:101DA00013E040F20D01C2F200010020087040F281
:101DB0000F11C2F200010120087006E040F210117C
:101DC000C2F2000101200870FFE740F20F10C2F2DA
:101DD00000000078012807D1FFE740F23001C2F28D
:101DE000000106200870FFE740F21111C2F2000165
:101DF00000200870FFE7FEE040F23000C2F2000071
:101E00000078012813D1FFE79DF8130002280DD1B7
:101E1000FFE740F23001C2F200010620087040F2F4
:101E20000F11C2F2000101200870FFE7E2E040F26A
:101E30003000C2F200000078032810D0FFE740F223
:101E40003000C2F200000078042808D0FFE740F21A
:101E50003000C2F200000078052813D1FFE79DF89A
:101E600013000B280DD1FFE740F23001C2F2000150
:101E70000620087040F20F11C2F200010120087024
:101E8000FFE7B6E040F23000C2F20000007806281A
:101E90003BD1FFE79DF813000146009160B3FFE7D7
:101EA00000980D281BD0FFE7009831280BD0FFE7E2
:101EB00000983A2821D1FFE740F23001C2F2000138
:101EC0000520087020E040F23001C2F2000101203C
:101ED000087040F20F11C2F20001087014E040F2E5
:101EE0003001C2F200010720087040F20011C2F276
:101EF00000010020087007E006E040F21011C2F275
:101F0000000101200870FFE772E040F23000C2F2E9
:101F10000000007807286AD1FFE740F20010C2F203
:101F200000000078252861DCFFE79DF8131040F2DF
:101F30000010C2F2000003785A1C027040F27802CE
:101F4000C2F20002D154007826284ED1FFE740F2B9
:101F50003001C2F200010620087040F27800C2F29F
:101F600000000078022838D1FFE740F27800C2F282
:101F700000004078022830D1FFE740F27800C2F23A
:101F8000000090F82200032827D1FFE740F27800F4
:101F9000C2F2000090F82300FF281ED1FFE740F2B4
:101FA0007800C2F2000090F82400032815D1FFE762
:101FB00040F27800C2F2000090F82500FF280CD112
:101FC000FFE740F29E01C2F200010120087040F2DA
:101FD0000F11C2F20001087006E040F21011C2F2C7
:101FE000000101200870FFE7FFE7FFE7FFE7FFE7D9
:101FF000FFE7FFE7FFE744E6FFE705B070470000B3
:1020000080B51120C0F20040FFF7E8FB41F200006C
:10201000C4F207004FF4165100F00CF880BD000028
:1020200082B001900091009A01994868104348607D
:1020300002B0704780B588B00790069148F2000062
:10204000C0F2511004904FF4004003900020029021
:1020500042F20041C0F2F4010191009040F21421DB
:10206000C4F200010968C1F301618DF8171040F254
:102070002021C4F200010968C1F303218DF8161074
:102080000799086307990320C860079988684FF685
:102090000F72CFF6F072104088609DF8170001288B
:1020A00008D1FFE7FEF77CFD9DF8172001A941F854
:1020B0002200FFE7069898B3FFE79DF8171001A8E4
:1020C00050F821009DF816100131B0FBF1F006998F
:1020D00000EB5100B0FBF1F0023800900098B0F531
:1020E000803F16D3FFE79DF8171001A850F8210094
:1020F0009DF816100131B0FBF1F0069900EBC1001C
:10210000B0FBF1F16FF0010000EB1110079948628C
:1021100005E0009840F0405007994862FFE7FFE76C
:1021200008B080BD86B00590049103920020009015
:102130000290FFE702980399884225D0FFE700202C
:102140000190FFE705988069000200280CD5FFE7A1
:102150000198013001900198B0F1804F03D3FFE75F
:102160000120009000E0EDE70098012801D1FFE791
:102170000AE004980299405C05990860FFE7FFE7D0
:10218000029801300290D5E7029806B0704700002F
:1021900080B586B004900391029204980190FFE705
:1021A00001980399884212D2FFE70198FEF75EFF7B
:1021B000009000980299884204D0FFE74FF0FF306A
:1021C000059007E0FFE7019804300190E8E7002060
:1021D0000590FFE7059806B080BD00000021C4F21D
:1021E0000401086840F04000086070477047000034
:1021F00084B0039002910192009302980421C4F2EA
:10220000040108600398019940EA4100009940EAFE
:10221000011040F080000021C4F20401086004B005
:102220007047000080B5FFF717FB0021C4F20401DE
:10223000086840F0010020F02C000860FFF7BEFAAB
:1022400080BD000081B08DF803009DF903000028D7
:102250000ED4FFE79DF9031001F01F02012090400A
:102260004A094EF20011CEF2000141F82200FFE7C8
:1022700001B0704780B586B08DF8130043F20000BE
:10228000C4F20400019000210291FEF72DFE019896
:102290000621FEF73BFE0198029A9DF81330114685
:1022A000FEF700FE43F2F801C4F20401012003909E
:1022B000086043F25001C4F20401086840F00400D1
:1022C000086043F2D001C4F20401086840F0010044
:1022D00008602A20FFF7B6FF0299039840F208121F
:1022E000C2F20002116043F25401C4F2040108601A
:1022F00040F20800C2F20000006840F22071C2F211
:1023000000010860FFE740F20810C2F20000006818
:1023100070B9FFE740F22071C2F20001086801388D
:10232000086020B9FFE74FF0FF30059010E0EAE7C2
:1023300043F25001C4F20401086820F00400086070
:1023400043F20000C4F20400006880B20590FFE789
:10235000059806B080BD000080B58CB00A90099346
:1023600008910792BDF82800ADF81A000899B1F954
:102370000000B1F90810084400EBD0704008ADF837
:1023800018000899B1F90400B1F90C10084400EBE9
:10239000D0704008ADF816000799B1F90000B1F906
:1023A0000810084400EBD0704008ADF814000799FD
:1023B000B1F90400B1F90C10084400EBD0704008EA
:1023C000ADF81200BDF91A00BDF91810BDF91620BC
:1023D000BDF91430BDF912C0EE46CEF800C000F0D1
:1023E00021FBADF81000BDF91000BDF924108842A2
:1023F00005DDFFE7BDF82400ADF810000AE0BDF9E7
:102400001000B0F1FF3F04DCFFE70020ADF8100042
:10241000FFE7FFE7BDF82A00ADF80E000899B1F913
:102420000200B1F90610084400EBD0704008ADF886
:102430000C000899B1F90A00B1F90E10084400EB3C
:10244000D0704008ADF80A000799B1F90200B1F95F
:102450000610084400EBD0704008ADF8080007995A
:10246000B1F90A00B1F90E10084400EBD070400831
:10247000ADF80600BDF90E00BDF90C10BDF90A203B
:10248000BDF90830BDF906C0EE46CEF800C000F038
:10249000C9FAADF80400BDF90400BDF92610884260
:1024A00005DDFFE7BDF82600ADF804000AE0BDF940
:1024B0000400B0F1FF3F04DCFFE70020ADF80400AA
:1024C000FFE7FFE7BDF81000ADF82C00BDF80400F1
:1024D000ADF82E000B980CB080BD000080B582B026
:1024E000019000910198FFF7D9F9019802B080BDE1
:1024F00080B58EB000208DF8370024208DF836008E
:10250000FFF7AAF9FEF7A8FD4FF48830FFF7FAF9B4
:10251000B0F1FF3F04DCFFE7FF208DF83700A8E0B3
:1025200000208DF80B004FF488300C90FFE70C98DA
:102530009DF8361001F58831884212D2FFE70C98D9
:10254000FEF794FD9DF80B2003A941F822009DF8A9
:102550000B0001308DF80B00FFE70C9804300C9055
:10256000E5E700208DF80A008DF80A00FFE79DF8E6
:102570000A0040F20C01C2F200010978B0EB410FF1
:102580002DDAFFE79DF80A3003A800EB83014988A4
:1025900040F25602C2F2000222F823109DF80A30DF
:1025A00050F8231002EB830251809DF80A3000EBB3
:1025B0008301CA8840F23201C2F2000121F82320CF
:1025C0009DF80A2000EB8200406801EB8201488000
:1025D000FFE79DF80A0002308DF80A00C7E70020E7
:1025E00001908DF80300FFE79DF8030040F20C0115
:1025F000C2F200010978B0EB410F0FDAFFE79DF856
:10260000031003A850F82110019808440190FFE737
:102610009DF8030001308DF80300E5E70198C04301
:1026200001900B980199884222D0FFE700208DF895
:102630000200FFE79DF8020040F20C01C2F2000127
:102640000978B0EB410F0FDAFFE79DF8021003A8FD
:1026500050F82110019808440190FFE79DF802000E
:1026600001308DF80200E5E7FE208DF8370000E02C
:10267000FFE7FEF773FCFFF7A1F89DF937000EB0F6
:1026800080BD000080B58EB0002007900D90FFF750
:10269000E3F8FFF715F8FFF791F8FFF7B1FC44F204
:1026A0008000C4F20000012204921146FEF772FE7F
:1026B000049A44F2C000C4F2000003901146FEF7F1
:1026C00069FE0398049A0221FEF764FE0398049AB7
:1026D0000421FEF75FFE0398049A08210591FEF796
:1026E00059FE04980599079A44F6C003C4F2000302
:1026F000186044F6C803C4F20003186044F6CC0323
:10270000C4F20003186044F68003C4F200031860AA
:1027100044F6C400C4F20000026044F24000C4F277
:1027200000000690FEF736FE0698079A1021FEF785
:1027300031FE0698079A20210891FEF72BFE069895
:10274000079A8021FEF726FE0020C4F205000990BA
:102750004FF0006140F20F32FFF714FA0998FFF7CB
:1027600083F90898FFF76EFD0998FFF745FA41F2E3
:102770000000C4F207001121FFF752FC2520FFF7EB
:1027800061FDFFF769F84FF6F770C0F201000B909A
:10279000FFE70B98411E0B9150B1FFE70021C4F2F7
:1027A0000401086840F0010020F02C000860F0E708
:1027B000FFF704F840F29F01C2F2000112200870F6
:1027C00041F20000C4F207000122FFF7ABFC082031
:1027D000FFF738FD00208DF82B00FFF789FE8DF8FC
:1027E0002B009DF92B0008B9FFE740E000F030F91D
:1027F0008DF82B009DF92B0008B9FFE700E0FFE7FB
:10280000FFF776FE8DF82B009DF92B0008B9FFE746
:102810002CE000208DF82A00FFE79DF82A0003280D
:1028200023DCFFE79DF82A2040F25601C2F20001A6
:1028300040F26600C2F2000050F8220041F8220087
:102840009DF82A2040F23201C2F2000140F242001B
:10285000C2F2000050F8220041F82200FFE79DF884
:102860002A0001308DF82A00D7E7FFE7FFE7FEF7DF
:10287000F3FF4FF4A060022101231A46FFF7B8FCD2
:102880000021C4F20401086840F0010020F02C008F
:102890000860FFF7A3FCFEF791FFFFE740F29E0000
:1028A000C2F200000078012875D1FFE740F27800FD
:1028B000C2F2000000908278C17841EA022140F221
:1028C0005603C2F20003019319800279417941EA6B
:1028D000022159808279C17941EA022240F2320113
:1028E000C2F2000102910A8090F808C0427A42EADE
:1028F0000C224A8090F80AC0C27A42EA0C229A80DE
:1029000090F80CC0427B42EA0C22DA8090F80EC0AC
:10291000C27B42EA0C228A8090F810C0427C42EAD4
:102920000C22CA8090F812C0C27C42EA0C221A81A2
:1029300090F814C0427D42EA0C225A8190F816C0E9
:10294000C27D42EA0C220A8190F818C0427E42EA17
:102950000C224A8190F81AC0C27E42EA0C229A8167
:1029600090F81CC0427F42EA0C22DA81837FC27F4A
:1029700042EA03228A8190F8202090F8210040EA60
:102980000220C88100F064F840F29E01C2F200010A
:10299000002008700BE040F23000C2F20000007826
:1029A000062803D0FFE700F083F9FFE7FFE740F2D6
:1029B0001010C2F200000078012814D1FFE740F2A5
:1029C0009F01C2F200011520087041F20000C4F21C
:1029D00007000122FFF7A6FB40F21011C2F200012E
:1029E00000200870FFE740F20F10C2F200000078EC
:1029F000012814D1FFE740F29F01C2F20001062036
:102A0000087041F20000C4F207000122FFF78AFBC0
:102A100040F20F11C2F2000100200870FFE7FFF73B
:102A200001FC3BE784B0DDF810C0039002910192F5
:102A300000930398029BC01A049A0099521A5043BB
:102A4000019AD21A90FBF2F0084404B070470000DB
:102A500080B592B000208DF846008DF84500242006
:102A60008DF81B00FEF7F8FEFEF7F6FA4FF48830FB
:102A7000FEF748FFB0F1FF3F04DCFFE7FF208DF8D1
:102A80004500FFE7FEF7D4FA08B9FFE703E0FE20B0
:102A90008DF84500FFE700208DF81A008DF81A0028
:102AA000FFE79DF81A0040F20C01C2F2000109781C
:102AB000B0EB410F35DAFFE79DF81A3040F25601CE
:102AC000C2F2000131F82300020407A840F82320D5
:102AD0009DF81A2001EB8201B1F9023050F8221062
:102AE000194440F822109DF81A3040F23202C2F226
:102AF000000232F82310090400EB830359609DF8AB
:102B00001A1002EB8102B2F9022000EB8101486841
:102B100010444860FFE79DF81A0002308DF81A0053
:102B2000BFE7002005908DF81300FFE79DF8130024
:102B300040F20C01C2F200010978B0EB410F0FDA4C
:102B4000FFE79DF8131007A850F8211005980844D6
:102B50000590FFE79DF8130001308DF81300E5E7BD
:102B60000598C043059005980F9000208DF8460009
:102B70008DF812004FF488301090FFE710989DF800
:102B80001B1001F5883188421BD2FFE71098FEF731
:102B90006DFA03909DF8461007A850F8210003999C
:102BA000884204D0FFE701208DF81200FFE79DF86E
:102BB000460001308DF84600FFE710980430109071
:102BC000DCE79DF8120020B9FFE700208DF84700F0
:102BD00069E04FF488300290FEF7D4F902984FF480
:102BE0008C314FF0FF32FFF7D3FAB0F1FF3F04DC36
:102BF000FFE7FD208DF84500FFE700208DF8460037
:102C00004FF488301090FFE710989DF81B1001F5E5
:102C10008831884212D2FFE710989DF8462007A914
:102C200051F82210FEF7DEFA9DF8460001308DF8CB
:102C30004600FFE7109804301090E5E700208DF87B
:102C400046004FF488301090FFE710989DF81B1055
:102C500001F5883188421CD2FFE79DF8461007A88D
:102C600050F8210001901098FEF700FA01460198F3
:102C7000884204D0FFE7FC208DF84500FFE79DF86F
:102C8000460001308DF84600FFE7109804301090A0
:102C9000DBE7FFE7FEF762F9FEF790FD9DF84500E0
:102CA0008DF84700FFE79DF9470012B080BD000096
:102CB00080B594B040F21210C2F2000000780128F2
:102CC00040F0F880FFE740F21211C2F2000100204C
:102CD000087040F20110C2F2000000781928C0F21A
:102CE000A080FFE744F6C401C4F2000100200860A0
:102CF00044F6C000C4F200000122026044F6CC0099
:102D0000C4F20000026044F6C800C4F20000026091
:102D100044F28000C4F200001146FEF73BFB40F293
:102D20000C10C2F200000078012817D1FFE7002044
:102D30008DF84B00FFE79DF84B0002280DDCFFE704
:102D400044F68001C4F2000100200860FFE79DF80E
:102D50004B0001308DF84B00EDE7FFE744F68001B2
:102D6000C4F200010120086044F24401C4F20001F1
:102D7000086820F40010086044F65400C4F2000013
:102D8000006810BBFFE740F20C10C2F20000012106
:102D9000017040F20110C2F20000017044F28000A4
:102DA000C4F2000000220A92FEF7F4FA0A9844F6F0
:102DB0008001C4F20001086044F24401C4F2000141
:102DC000086840F4380008602AE040F20C11C2F2B2
:102DD00000010020087040F20D10C2F200000078DF
:102DE00001281CD1FFE740F20E10C2F2000000786B
:102DF000A0B9FFE740F20D11C2F2000100200870F7
:102E000040F29F01C2F200011020087041F2000060
:102E1000C4F207000122FFF785F9FFE7FFE7FFE7AC
:102E200010E040F20110C2F200000078182808DC1F
:102E3000FFE740F20111C2F200010878013008708A
:102E4000FFE7FFE740F20C10C2F200000078012813
:102E500025D1FFE740F20110C2F2000000780728F8
:102E60001BD1FFE744F6C000C4F200000122099222
:102E7000026044F28000C4F200001146FEF78AFAB4
:102E8000099844F68001C4F20001086044F6C401C8
:102E9000C4F200010020086000E0FFE7FFE740F215
:102EA0000110C2F20000007840F20211C2F20001EB
:102EB0000870FFE740F20310C2F20000007840F211
:102EC0000211C2F200010978884200F0CF82FFE7C8
:102ED00040F20210C2F20000017840F20312C2F286
:102EE0000002117000780128C0F24081FFE740F233
:102EF0000210C2F200000078062800F33781FFE7D5
:102F000044F28000C4F20000012100220792FEF783
:102F100041FA079844F68001C4F20001086044F2C7
:102F20004402C4F20002116841F4380111608DF8C6
:102F30004A0040F20210C2F200000178481E0891D7
:102F400002280AD3FFE708980338022809D3FFE7CD
:102F500008980538022808D30BE000208DF84A00B5
:102F600008E001208DF84A0004E002208DF84A00B4
:102F700000E0FFE700208DF84900FFE79DF84900D9
:102F80007F2800F3F280FFE740F20210C2F2000057
:102F90000078012810D0FFE740F20210C2F20000D2
:102FA0000078032808D0FFE740F20210C2F20000C8
:102FB0000078052869D1FFE700208DF84800FFE779
:102FC0009DF8480000280DDCFFE744F6C401C4F278
:102FD000000100200860FFE79DF8480001308DF8EF
:102FE0004800EDE700208DF84700FFE79DF8470017
:102FF00000280DDCFFE744F6C001C4F20001012007
:103000000860FFE79DF8470001308DF84700EDE7C5
:1030100000208DF84600FFE79DF8460000280DDCF3
:10302000FFE744F6CC01C4F2000101200860FFE78D
:103030009DF8460001308DF84600EDE700208DF840
:103040004500FFE79DF8450000280DDCFFE744F64A
:10305000C801C4F2000100200860FFE79DF84500A8
:1030600001308DF84500EDE70F20FFF703F98008E8
:103070009DF84A2040F21411C2F2000101EB022136
:103080009DF8492021F8120068E000208DF84400E6
:10309000FFE79DF8440000280DDCFFE744F6C4017B
:1030A000C4F2000101200860FFE79DF844000130F0
:1030B0008DF84400EDE700208DF84300FFE79DF810
:1030C000430000280DDCFFE744F6C001C4F2000114
:1030D00000200860FFE79DF8430001308DF84300B1
:1030E000EDE700208DF84200FFE79DF84200002840
:1030F0000DDCFFE744F6CC01C4F2000100200860BB
:10310000FFE79DF8420001308DF84200EDE7002016
:103110008DF84100FFE79DF8410000280DDCFFE736
:1031200044F6C801C4F2000101200860FFE79DF8E1
:10313000410001308DF84100EDE70420FFF79AF8D7
:1031400080089DF84A2040F21A41C2F2000101EBCA
:1031500002219DF8492021F81200FFE7FFE79DF8C2
:10316000490001308DF8490008E77EE140F2021085
:10317000C2F200000078072840F07681FFE70020C7
:103180008DF84000FFE79DF84000022858DCFFE77B
:1031900000200F900E9010208DF83700FFE79DF86B
:1031A00037006F2825DCFFE79DF8401040F214102F
:1031B000C2F2000000EB01209DF8371030F811102A
:1031C0000F9808440F909DF8401040F21A40C2F248
:1031D000000000EB01209DF8371030F811100E9818
:1031E00008440E90FFE79DF8370001308DF8370056
:1031F000D5E70F984AF6AB21CAF6AA21A0FB012019
:1032000080090F900E98A0FB011080090E900F9876
:103210009DF8402040F21441C2F2000121F8120052
:103220000E989DF8402040F21A71C2F2000121F878
:103230001200FFE79DF8400001308DF84000A2E742
:1032400000208DF8360040F21441C2F200010888D7
:103250004988401AB0F1FF3F09DCFFE740F2144013
:10326000C2F2000001884088401A069008E040F24F
:103270001441C2F2000108884988401A0690FFE70D
:103280000698052800F3EF80FFE740F21441C2F2F0
:10329000000108888988401AB0F1FF3F09DCFFE788
:1032A00040F21440C2F2000001888088401A059064
:1032B00008E040F21441C2F2000108888988401AEF
:1032C0000590FFE70598052800F3CD80FFE740F261
:1032D0001A71C2F2000108884988401AB0F1FF3F14
:1032E00009DCFFE740F21A70C2F200000188408852
:1032F000401A049008E040F21A71C2F200010888F6
:103300004988401A0490FFE70498052800F3AB8031
:10331000FFE740F21A71C2F2000108888988401A5A
:10332000B0F1FF3F09DCFFE740F21A70C2F2000083
:1033300001888088401A039008E040F21A71C2F2B6
:10334000000108888988401A0390FFE70398052840
:1033500000F38980FFE740F21441C2F200010191BD
:103360004A880888104408808A88088810440880A1
:10337000088845F25653C5F25553A0FB0320088038
:1033800040F21A70C2F200000290B0F802C0028847
:1033900062440280B0F804C002886244028002885D
:1033A000A2FB0332028001228DF8362040F20D1379
:1033B000C2F200031A7040F20E13C2F2000332226E
:1033C0001A700988ADF84C100088ADF84E0040F234
:1033D0003000C2F200000078052816D1FFE71398EC
:1033E00040F25201C2F200010B6840F25601C2F2F3
:1033F000000140F23202C2F20002FEF7ADFFCDF84A
:103400003200DDF832001390FFE711208DF8310013
:103410009DF84D008DF83000BDF84C008DF82F0060
:103420009DF84F008DF82E00BDF84E008DF82D0050
:103430009DF8310040F29F01C2F2000108709DF832
:10344000300048709DF82F0088709DF82E00C870DD
:103450009DF82D00087141F20000C4F2070005221A
:10346000FEF760FEFFE7FFE7FFE7FFE714B080BD70
:103470000FB4054B10B503A9044A029800F0DAF81E
:1034800010BC5DF814FB0000DD240000AC0000203F
:1034900002E008C8121F08C1002AFAD1704770471D
:1034A000002001E001C1121F002AFBD1704700007B
:1034B0002DE9FF5F82B00021DDE90430020DDDF867
:1034C00040B0034318D044F61050A2F2FF324243FA
:1034D0001514119801281FD0A5EB0B00401C5FEAC2
:1034E000000A4FF000064E4FDFF83891B0465046C4
:1034F00015D5CAF1000413E0119801244AA301284C
:1035000001D16FEA0B010298119AC0E90031C0E9BC
:10351000024206B0BDE8F09FCBF10000DFE70446B1
:103520000021404A491842EB0450CDE9001012E056
:10353000E00707D032463B4640464946FCF72EFF9F
:103540008046894632463B4610461946FCF726FF20
:1035500006460F466410002CEAD1DDE90401DDE9DE
:103560000023BAF1000F06DAFCF718FF42464B467B
:10357000FCF714FF05E0FCF783FF42464B46FCF7DF
:103580007FFF04460E460022284BFDF701F803D8C2
:103590004FF0FF30014607E00022254B2046314620
:1035A000FCF755FEFCF7DBFF102409E0002C0ADBDA
:1035B0000A220023FCF71AFE039B30321A55641EC0
:1035C00050EA0102F2D1641C039AC4F111031444BD
:1035D000119A012A03D0012208430DD10AE00843C1
:1035E00004D000204FF0110B119072E7A3EB0B05F4
:1035F0006D1E0DE05B4504DD4FF0000205F1010595
:1036000004E003DA4FF00002A5F10105002AECD036
:1036100002981199C0E90231C0E9004579E700003C
:10362000000014400000F03F300000000000F043B4
:103630000000E03F2DE9FF4F95B09B4689460646C6
:1036400000250FE2252877D100242746F84A0121DA
:10365000059400E0044316F8013F203B01FA03F013
:103660001042F7D130782A2811D06FF02F0330782C
:10367000A0F13002092A16D8059A44F0020402EBA0
:10368000820203EB42021044761C0590EFE759F8E2
:10369000042B0592002A03DA504244F400540590AA
:1036A00044F00204761C30782E2816D116F8010F4B
:1036B00044F004042A280DD06FF02F023078A0F1D6
:1036C0003003092B09D807EB870302EB4303C71824
:1036D000761CF3E759F8047B761C30786C280FD001
:1036E00006DC4C2817D068280DD06A2814D104E0D5
:1036F000742810D07A280FD10DE044F400140AE0A9
:1037000044F4801401E044F440147278824202D1FF
:1037100004F58014761C761C307866280BD013DCF8
:10372000582877D009DC002875D04528F6D04628DF
:10373000F4D047281AD19DE118E0632835D06428D9
:1037400079D0652812D195E1702873D008DC6728FC
:10375000F1D069286FD06E280DD06F2806D1B5E062
:1037600073282CD0752875D0782874D05A461799AC
:1037700090476D1C75E1C4F30250022809D003285C
:103780000DD0D9F8001004280DD00D6009F10409FE
:1037900067E1D9F80010EA17C1E90052F6E7D9F855
:1037A00000100D80F2E70D70F0E719F8041B8DF89A
:1037B000001000208DF80100EA46012003E059F8CE
:1037C00004AB4FF0FF3061074FF0000102D40DE071
:1037D00008F101018846B9420FDA8045F8DB1AF892
:1037E00008100029F4D108E008F10101884681425F
:1037F000FADB1AF808100029F6D105985B46A0EB11
:10380000080721463846179A00F094FA284400EB3E
:10381000080507E04DE029E10DE01AF8010B5A46D2
:1038200017999047B8F10108F7D25B462146384610
:10383000179A13E142E00A220092C4F302524FF0B9
:10384000000A022A08D059F804CB032A4FEAEC7187
:103850000AD00DE029E02AE009F1070121F0070272
:10386000F2E802C1914609E00FFA8CFC4FEAEC71D4
:10387000042A03D14FFA8CFC4FEAEC71002907DAD5
:103880000A460021DCF1000C61EB02012D2202E06E
:10389000220504D52B228DF80420012203E0E20743
:1038A00001D02022F7E7904659E00A2102E01022D9
:1038B0000DE010214FF0000A00910BE010224FF0B4
:1038C000000A44F004040827009203E008224FF0A5
:1038D000000A0092C4F30252022A05D059F804CB20
:1038E0000021032A08D009E009F1070121F00702AD
:1038F000F2E802C1914605E01FFA8CFC042A01D1CE
:103900000CF0FF0C4FF00008220728D5702806D0D5
:10391000009B83F0100353EA0A0305D00EE0402217
:103920008DF80420012208E05CEA010206D0302272
:103930008DF804208DF8050002229046009B83F04C
:10394000080353EA0A030AD15CEA010201D16207C3
:1039500005D530228DF804204FF001087F1E58282D
:1039600004D034A003900EA802900DE036A0F9E731
:1039700053466046009AFCF739FC84460398825C03
:103980000298401E029002705CEA0100F0D1029899
:1039900006A9081A00F1200A600702D524F4803431
:1039A00000E00127574502DDA7EB0A0000E00020F8
:1039B00000EB0A01009005984144401A0590E0038D
:1039C00006D45B462146179A059800F0B3F90544E2
:1039D000002706E001A85A46C05D179990476D1C64
:1039E0007F1C4745F6DBE0030CD55B462146179A62
:1039F000059800F09FF9054404E030205A461799D5
:103A000090476D1C0099481E00900029F5DC08E0E5
:103A1000029802995A460078491C029117999047DA
:103A20006D1CBAF10001AAF1010AF1DC65E10000A8
:103A30000928010030313233343536373839616284
:103A40006364656600000000303132333435363748
:103A500038394142434445460000000000F058F91F
:103A60000544761C307800287FF4ECAD19B0284668
:103A7000BDE8F08F620700D4062709F1070222F0A3
:103A8000070CFCE80223E14603F000485FEA080C5B
:103A900002D00FF2702C0DE05FEA045C02D50FF249
:103AA000682C07E05FEAC47C02D00FF2602C01E0D2
:103AB000AFF2700C4FF0FF3823F00043CDF850C048
:103AC00065280CD006DC452809D046281DD047289B
:103AD0003DD13DE0662818D067287ED138E000212E
:103AE000112F01DB112000E0781CCDE9000106A9AF
:103AF0000EA8FFF7DDFCDDE90F010E9A039100210E
:103B0000009207F1010A04914DE04FF00040009748
:103B1000CDE9011006A90EA8FFF7CAFCDDE90F02E6
:103B200003920E9B11990022DDF80CA000930492E1
:103B300011B9791C00EB010AB7EB0A0004D4C0F1FB
:103B4000FF3007F1010A0490AAEB0700019044E05E
:103B5000012F00DA01270021112F01DD112000E0E3
:103B60003846CDE9000106A90EA8FFF7A1FCDDE962
:103B70000F010E9A0391002104910092BA46210789
:103B80000CD40399514500DA8A46BAF1010F05DDDC
:103B9000009AAAF10101515C302908D0B84202DA3A
:103BA00010F1040F06DA0121CDE9011015E0AAF1A8
:103BB0000101E9E7002805DC049901440491AAEB1E
:103BC000000102E0411C514500DD8A460499401A7B
:103BD000401C01904FF000400290200704D401984F
:103BE000504501DBCDF8048000208DF84F0002988D
:103BF0000DF14F07B0F1004F25D02B200E90029809
:103C00004FF0020800280CDA404202902D200E905E
:103C100007E00A210298FCF7D3FA3031029007F846
:103C2000011DB8F10001A8F10108F2DC029800289A
:103C3000EFD1791E0E980870307800F0200040F027
:103C4000450007F8020D12A8C01B00F107081498E0
:103C5000007800B1012000EB0A01019801EBE0714E
:103C600005984144401A401E0590E00306D45B4687
:103C70002146179A059800F05DF8054414980078DD
:103C800018B15A46179990476D1CE00324D55B463E
:103C90002146179A059800F04DF805441CE0049859
:103CA000002807DBDDE90301884203DD0098405C62
:103CB000179901E0179930205A469047049805F16A
:103CC0000105401C04900198401E019004D12E2053
:103CD0005A46179990476D1CBAF10001AAF1010AE2
:103CE000DDDC05E017F8010B5A46179990476D1C6B
:103CF000B8F10001A8F10108F4DC5B462146179AEF
:103D00000598ABE62D0000002B000000200000000D
:103D10002DE9F041044600251E461746880404D4C8
:103D200005E039462020B0476D1C641EF9D52846B1
:103D3000BDE8F0812DE9F041044600251E4690467D
:103D4000C80301D5302700E02027880404D505E00A
:103D500041463846B0476D1C641EF9D52846BDE87B
:103D6000F08100000024F40000800000000000004A
:103D7000000000000000000010270000000000000C
:103D800000805101486172644661756C7420416E17
:103D9000616C797369733A0A005B30782530387842
:103DA0005D203078253034782025732030782578D0
:103DB000205B307825785D0A004578656375746509
:103DC00020424B505420776974686F7574204943C2
:103DD0004520636F6E6E65637465640A00556E6599
:103DE0007870656374656420696E7374727563744A
:103DF000696F6E0A00496E737472756374696F6ED1
:103E000020636F6465203D2025780A004C445248A9
:103E10002F535452482072743D257820726E3D25F0
:103E20007820696D6D353D25780A004C44522F533A
:103E300054522072743D257820726E3D2578206999
:103E40006D6D353D25780A004C4452482F5354522D
:103E5000482072743D257820696D6D383D25780ABB
:103E6000004C44522F5354522072743D25782072D6
:103E70006D3D257820726E3D25780A004861726498
:103E80004661756C742040203078253038780A00FF
:103E90002A2A2A20617373657274696F6E206661C5
:103EA000696C65643A20002C2066696C6520002CE2
:103EB000206C696E6520004C44520053545200003F
:103EC000E03E000000000020780000009034000078
:103ED000583F000078000020B00A0000A034000025
:103EE000100000000024F4000024F400042100006D
:103EF0000024F400008000000000000010270000F3
:103F000000000000000000000000000000805101DF
:103F100002000000000020030000000058022003FF
:103F20005802000000002003000000005802200397
:103F30005802FF03FF0328003200D40328001E00AC
:103F4000D403CA03CA0328003200D40328001E0089
:083F5000D403CA03CA030000F8
:0400000500000155A1
:00000001FF
